:020000040800F2
:10000000700600200D020008150200081702000803
:10001000190200081B0200081D0200080000000071
:100020000000000000000000000000001F020008A7
:10003000210200080000000023020008BD0800089B
:1000400027020008270200082702000827020008EC
:1000500027020008270200082702000827020008DC
:1000600027020008270200082702000827020008CC
:1000700027020008270200082702000827020008BC
:1000800027020008270200082702000827020008AC
:10009000270200082702000827020008270200089C
:1000A000270200082702000827020008270200088C
:1000B000270200082702000827020008270200087C
:1000C000270200082702000827020008270200086C
:1000D000270200082702000827020008270200085C
:1000E000270200082702000827020008270200084C
:1000F000270200082702000827020008270200083C
:1001000000000000000000000000000027020008BE
:10011000270200082702000827020008270200081B
:10012000270200082702000827020008270200080B
:10013000270200082702000800000000000000005D
:10014000270200082702000827020008000000001C
:10015000000000000000000000000000000000009F
:10016000000000000000000027020008270200082D
:10017000270200080000000000000000000000004E
:10018000000000002702000800F002F800F02EF83E
:100190000AA090E8000C82448344AAF10107DA45E2
:1001A00001D100F023F8AFF2090EBAE80F0013F006
:1001B000010F18BFFB1A43F001031847A007000006
:1001C000B00700000023002400250026103A28BFB5
:1001D00078C1FBD8520728BF30C148BF0B607047B9
:1001E0001FB500F0ADFB1FBD10B510BD00F031F81C
:1001F0001146FFF7F5FF00F07BFB00F04FF803B46A
:10020000FFF7F2FF03BC00F057F8000009488047F1
:1002100009480047FEE7FEE7FEE7FEE7FEE7FEE7E8
:10022000FEE7FEE7FEE7FEE704480549054A064B00
:1002300070470000CD080008890100087000002008
:100240007006002070020020700200207047704786
:100250007047754600F02CF8AE46050069465346D7
:1002600020F00700854618B020B5FFF7DDFFBDE898
:1002700020404FF000064FF000074FF000084FF00D
:10028000000BAC46ACE8C009ACE8C009ACE8C0095A
:10029000ACE8C00921F007018D46704710B504464F
:1002A000AFF300802046BDE81040FFF7A8BF000074
:1002B000004870470000002001491820ABBEFEE74F
:1002C000260002007047000041F20400C4F2020060
:1002D00050F8041C41F4802140F8041C50F8041C20
:1002E00041F4803140F8041C50F8041C8903FBD50C
:1002F00050F8041C41F4002140F8041C50F8041C80
:1003000021F0807140F8041C016841F480310160E3
:10031000016841F4E011016001680160016841F485
:10032000806101600168016050F8041C41F0807137
:1003300040F8041C50F8041C8901FBD542F200016E
:10034000C4F202010A6842F010020A600A6822F050
:1003500008020A600A6822F001020A600A6842F094
:1003600002020A600A6822F004020A60016821F0B1
:1003700001010160016841F0020101607047000065
:1003800041F21400C4F20200016841F4003101603E
:100390004FF09040016821F001010160016821F0F7
:1003A000020101600C20C4F60000016821F0010187
:1003B0000160016821F0020101607047042888BFD4
:1003C000704740F61401C4F60001DFE800F00307AF
:1003D0000F1B2C00086820F0010027E0086840F09F
:1003E00001000860086820F0020023E0086840F07F
:1003F00001000860086840F002000860086820F00A
:1004000004001BE0086840F001000860086840F044
:1004100002000860086840F004000860086820F0E6
:10042000080008607047086840F00100086008682C
:1004300040F002000860086840F0040008600868A6
:1004400040F008000860704780B500F089F8FFF7B9
:1004500097FF40F26500C2F2000000F0F7F980BD9E
:10046000B0B50D46044600F0F5F92846FFF7A6FFA3
:10047000092C88BFB0BD40F61400012CC4F6000062
:1004800001D0042C03D1016821F0100102E00168C1
:1004900041F0100101600168621F21F02001012A72
:1004A00088BF203101600168022C21F0400118BF93
:1004B0004031016040F26D310268E14061F3C712E2
:1004C000026040F245110268E14061F308220260D7
:1004D00040F271310268E14061F3492202604FF459
:1004E0005F710268E14061F38A220260B0BD0000E2
:1004F00080B500F0D1F940F26001C2F200014FF482
:100500007A7000F0FDF9002840F26400C2F20000A9
:1005100002D001780131017040F61401C4F60001E7
:10052000007809684843C0F3470000F0C1F980BD76
:1005300010B540F26504C2F20004207858B120469C
:1005400000F06CF9A0780021FFF78AFFE078032122
:10055000FFF786FF10BD0420FFF730FF10BD00003D
:1005600041F21400C4F20200016841F4002101606C
:1005700040F60000C4F60000016841F0010101608E
:10058000016821F002010160416821F00101416030
:10059000816841F001018160816841F00201816060
:1005A000C16821F00101C160C16821F00201C16090
:1005B000016841F004010160016821F00801016057
:1005C000416821F002014160816841F004018160CD
:1005D000816841F008018160C16821F00401C160B7
:1005E000C16821F00801C160016841F0100101609B
:1005F000016821F020010160416821F0040141609F
:10060000816841F010018160816841F020018160C2
:10061000C16821F01001C160C16821F02001C160F2
:10062000016841F040010160016821F08001016032
:10063000416821F008014160816841F0400181601A
:10064000816841F080018160C16821F04001C16092
:10065000C16821F08001C160016841F480710160CE
:10066000016821F400710160416821F010014160CE
:10067000816841F480718160816841F4007181601A
:10068000C16821F48071C160C16821F40071C1604A
:10069000016841F480610160016821F4006101603A
:1006A000416821F020014160816841F480618160EE
:1006B000816841F400618160C16821F48061C1609A
:1006C000C16821F40061C160016841F4805101609A
:1006D000016821F400510160416821F0400141604E
:1006E000816841F480518160816841F400518160EA
:1006F000C16821F48051C160C16821F40051C1601A
:10070000016841F480410160016821F40041016009
:10071000416821F080014160816841F4804181603D
:10072000816841F400418160C16821F48041C16069
:10073000C16821F40041C160016841F48031016069
:10074000016821F400310160416821F48071416049
:10075000816841F480318160816841F400318160B9
:10076000C16821F48031C160C16821F40031C160E9
:10077000016841F480210160016821F400210160D9
:10078000416821F400714160816841F480218160F9
:10079000816841F400218160C16821F48021C16039
:1007A000C16821F40021C160016841F48011016039
:1007B000016821F400110160416821F48061416009
:1007C000816841F480118160816841F40011816089
:1007D000C16821F48011C160C16821F40011C160B9
:1007E000016841F480010160016821F400010160A9
:1007F000416821F400614160816841F480018160B9
:10080000816841F400018160C16821F48001C16008
:10081000C16821F40001C1607047000041784CF6C6
:10082000CD4CCAB2CCF6CC4CA2FB0C23DA08A2FB0E
:100830000C3C02EB8203A1EB4301C1704FEADC01E7
:1008400001EB8101A2EB4101817070470021016041
:100850007047000040F61400C4F60000016821F063
:1008600010010160016821F020010160016821F0A0
:1008700040010160016821F080010160016821F4FC
:1008800080710160016821F400710160016821F448
:10089000806101607047000080B540F26500C2F2DF
:1008A000000001210170002000F002F880BD00006E
:1008B00040F26501C2F200014870704740F26C00DE
:1008C000C2F2000001680131016070474EF68850A5
:1008D000CEF20000016841F4700101607047000031
:1008E00080B5FFF7F1FC00F01FF8FFF7ADFD80BD0C
:1008F000FFF7F6FFFFF71CFEFFF7FAFDFAE700002F
:1009000040F26C020B68C2F20002126823B1D21AE4
:1009100082424FF0000204D9002B18BF01230A6065
:100920001A461046704700004EF2100041F63F1183
:10093000CEF20000C0F20101416007210160704762
:10094000F1EE100A4FF6FF71C0F2C03120EA01004B
:1009500040F04070E1EE100A704700006C0900089A
:0C0960000000002070060000C401000828
:040000050800020DE0
:00000001FF
